{
	"Interface.sol": {
		"BakeryInventory": {
			"abi": [
				{
					"inputs": [
						{
							"internalType": "uint256",
							"name": "_amount",
							"type": "uint256"
						}
					],
					"name": "addEggs",
					"outputs": [],
					"stateMutability": "nonpayable",
					"type": "function"
				},
				{
					"inputs": [
						{
							"internalType": "uint256",
							"name": "_amount",
							"type": "uint256"
						}
					],
					"name": "addFlour",
					"outputs": [],
					"stateMutability": "nonpayable",
					"type": "function"
				},
				{
					"inputs": [
						{
							"internalType": "uint256",
							"name": "_amount",
							"type": "uint256"
						}
					],
					"name": "addSugar",
					"outputs": [],
					"stateMutability": "nonpayable",
					"type": "function"
				},
				{
					"inputs": [],
					"name": "eggs",
					"outputs": [
						{
							"internalType": "uint256",
							"name": "",
							"type": "uint256"
						}
					],
					"stateMutability": "view",
					"type": "function"
				},
				{
					"inputs": [],
					"name": "flour",
					"outputs": [
						{
							"internalType": "uint256",
							"name": "",
							"type": "uint256"
						}
					],
					"stateMutability": "view",
					"type": "function"
				},
				{
					"inputs": [],
					"name": "getItems",
					"outputs": [
						{
							"internalType": "uint256",
							"name": "Flour_",
							"type": "uint256"
						},
						{
							"internalType": "uint256",
							"name": "Sugar_",
							"type": "uint256"
						},
						{
							"internalType": "uint256",
							"name": "Eggs_",
							"type": "uint256"
						}
					],
					"stateMutability": "view",
					"type": "function"
				},
				{
					"inputs": [
						{
							"internalType": "uint256",
							"name": "_amount",
							"type": "uint256"
						}
					],
					"name": "subEggs",
					"outputs": [],
					"stateMutability": "nonpayable",
					"type": "function"
				},
				{
					"inputs": [
						{
							"internalType": "uint256",
							"name": "_amount",
							"type": "uint256"
						}
					],
					"name": "subFlour",
					"outputs": [],
					"stateMutability": "nonpayable",
					"type": "function"
				},
				{
					"inputs": [
						{
							"internalType": "uint256",
							"name": "_amount",
							"type": "uint256"
						}
					],
					"name": "subSugar",
					"outputs": [],
					"stateMutability": "nonpayable",
					"type": "function"
				},
				{
					"inputs": [],
					"name": "sugar",
					"outputs": [
						{
							"internalType": "uint256",
							"name": "",
							"type": "uint256"
						}
					],
					"stateMutability": "view",
					"type": "function"
				}
			],
			"devdoc": {
				"kind": "dev",
				"methods": {},
				"version": 1
			},
			"evm": {
				"assembly": "    /* \"Interface.sol\":737:1751  contract BakeryInventory {... */\n  mstore(0x40, 0x80)\n    /* \"Interface.sol\":790:832  0xd9145CCE52D386f254917e481eB44e9943F39138 */\n  0xd9145cce52d386f254917e481eb44e9943f39138\n    /* \"Interface.sol\":769:832  address calAddress = 0xd9145CCE52D386f254917e481eB44e9943F39138 */\n  0x00\n  exp(0x0100, 0x00)\n  dup2\n  sload\n  dup2\n  0xffffffffffffffffffffffffffffffffffffffff\n  mul\n  not\n  and\n  swap1\n  dup4\n  0xffffffffffffffffffffffffffffffffffffffff\n  and\n  mul\n  or\n  swap1\n  sstore\n  pop\n    /* \"Interface.sol\":737:1751  contract BakeryInventory {... */\n  callvalue\n  dup1\n  iszero\n  tag_1\n  jumpi\n  revert(0x00, 0x00)\ntag_1:\n  pop\n  dataSize(sub_0)\n  dup1\n  dataOffset(sub_0)\n  0x00\n  codecopy\n  0x00\n  return\nstop\n\nsub_0: assembly {\n        /* \"Interface.sol\":737:1751  contract BakeryInventory {... */\n      mstore(0x40, 0x80)\n      callvalue\n      dup1\n      iszero\n      tag_1\n      jumpi\n      revert(0x00, 0x00)\n    tag_1:\n      pop\n      jumpi(tag_2, lt(calldatasize, 0x04))\n      shr(0xe0, calldataload(0x00))\n      dup1\n      0xbff7e49f\n      gt\n      tag_13\n      jumpi\n      dup1\n      0xbff7e49f\n      eq\n      tag_8\n      jumpi\n      dup1\n      0xc3179b91\n      eq\n      tag_9\n      jumpi\n      dup1\n      0xd3e19de7\n      eq\n      tag_10\n      jumpi\n      dup1\n      0xe33f76cf\n      eq\n      tag_11\n      jumpi\n      dup1\n      0xfb49c3c9\n      eq\n      tag_12\n      jumpi\n      jump(tag_2)\n    tag_13:\n      dup1\n      0x410d59cc\n      eq\n      tag_3\n      jumpi\n      dup1\n      0x6071214d\n      eq\n      tag_4\n      jumpi\n      dup1\n      0x61d87b2a\n      eq\n      tag_5\n      jumpi\n      dup1\n      0x63dcd2d4\n      eq\n      tag_6\n      jumpi\n      dup1\n      0xa0e0e13c\n      eq\n      tag_7\n      jumpi\n    tag_2:\n      revert(0x00, 0x00)\n        /* \"Interface.sol\":1587:1749  function getItems() public view returns(uint256 Flour_,uint256 Sugar_,uint256 Eggs_) {... */\n    tag_3:\n      tag_14\n      tag_15\n      jump\t// in\n    tag_14:\n      mload(0x40)\n      tag_16\n      swap4\n      swap3\n      swap2\n      swap1\n      tag_17\n      jump\t// in\n    tag_16:\n      mload(0x40)\n      dup1\n      swap2\n      sub\n      swap1\n      return\n        /* \"Interface.sol\":1475:1581  function subEggs(uint256 _amount) public  {... */\n    tag_4:\n      tag_18\n      0x04\n      dup1\n      calldatasize\n      sub\n      dup2\n      add\n      swap1\n      tag_19\n      swap2\n      swap1\n      tag_20\n      jump\t// in\n    tag_19:\n      tag_21\n      jump\t// in\n    tag_18:\n      stop\n        /* \"Interface.sol\":1245:1354  function subFlour(uint256 _amount) public  {... */\n    tag_5:\n      tag_22\n      0x04\n      dup1\n      calldatasize\n      sub\n      dup2\n      add\n      swap1\n      tag_23\n      swap2\n      swap1\n      tag_20\n      jump\t// in\n    tag_23:\n      tag_24\n      jump\t// in\n    tag_22:\n      stop\n        /* \"Interface.sol\":1360:1469  function subSugar(uint256 _amount) public  {... */\n    tag_6:\n      tag_25\n      0x04\n      dup1\n      calldatasize\n      sub\n      dup2\n      add\n      swap1\n      tag_26\n      swap2\n      swap1\n      tag_20\n      jump\t// in\n    tag_26:\n      tag_27\n      jump\t// in\n    tag_25:\n      stop\n        /* \"Interface.sol\":865:885  uint256 public sugar */\n    tag_7:\n      tag_28\n      tag_29\n      jump\t// in\n    tag_28:\n      mload(0x40)\n      tag_30\n      swap2\n      swap1\n      tag_31\n      jump\t// in\n    tag_30:\n      mload(0x40)\n      dup1\n      swap2\n      sub\n      swap1\n      return\n        /* \"Interface.sol\":839:859  uint256 public flour */\n    tag_8:\n      tag_32\n      tag_33\n      jump\t// in\n    tag_32:\n      mload(0x40)\n      tag_34\n      swap2\n      swap1\n      tag_31\n      jump\t// in\n    tag_34:\n      mload(0x40)\n      dup1\n      swap2\n      sub\n      swap1\n      return\n        /* \"Interface.sol\":1135:1235  function addEggs(uint256 _amount) public  {... */\n    tag_9:\n      tag_35\n      0x04\n      dup1\n      calldatasize\n      sub\n      dup2\n      add\n      swap1\n      tag_36\n      swap2\n      swap1\n      tag_20\n      jump\t// in\n    tag_36:\n      tag_37\n      jump\t// in\n    tag_35:\n      stop\n        /* \"Interface.sol\":917:1020  function addFlour(uint256 _amount) public  {... */\n    tag_10:\n      tag_38\n      0x04\n      dup1\n      calldatasize\n      sub\n      dup2\n      add\n      swap1\n      tag_39\n      swap2\n      swap1\n      tag_20\n      jump\t// in\n    tag_39:\n      tag_40\n      jump\t// in\n    tag_38:\n      stop\n        /* \"Interface.sol\":891:910  uint256 public eggs */\n    tag_11:\n      tag_41\n      tag_42\n      jump\t// in\n    tag_41:\n      mload(0x40)\n      tag_43\n      swap2\n      swap1\n      tag_31\n      jump\t// in\n    tag_43:\n      mload(0x40)\n      dup1\n      swap2\n      sub\n      swap1\n      return\n        /* \"Interface.sol\":1026:1129  function addSugar(uint256 _amount) public  {... */\n    tag_12:\n      tag_44\n      0x04\n      dup1\n      calldatasize\n      sub\n      dup2\n      add\n      swap1\n      tag_45\n      swap2\n      swap1\n      tag_20\n      jump\t// in\n    tag_45:\n      tag_46\n      jump\t// in\n    tag_44:\n      stop\n        /* \"Interface.sol\":1587:1749  function getItems() public view returns(uint256 Flour_,uint256 Sugar_,uint256 Eggs_) {... */\n    tag_15:\n        /* \"Interface.sol\":1627:1641  uint256 Flour_ */\n      0x00\n        /* \"Interface.sol\":1642:1656  uint256 Sugar_ */\n      0x00\n        /* \"Interface.sol\":1657:1670  uint256 Eggs_ */\n      0x00\n        /* \"Interface.sol\":1691:1696  flour */\n      sload(0x01)\n        /* \"Interface.sol\":1682:1696  Flour_ = flour */\n      swap3\n      pop\n        /* \"Interface.sol\":1715:1720  sugar */\n      sload(0x02)\n        /* \"Interface.sol\":1706:1720  Sugar_ = sugar */\n      swap2\n      pop\n        /* \"Interface.sol\":1738:1742  eggs */\n      sload(0x03)\n        /* \"Interface.sol\":1730:1742  Eggs_ = eggs */\n      swap1\n      pop\n        /* \"Interface.sol\":1587:1749  function getItems() public view returns(uint256 Flour_,uint256 Sugar_,uint256 Eggs_) {... */\n      swap1\n      swap2\n      swap3\n      jump\t// out\n        /* \"Interface.sol\":1475:1581  function subEggs(uint256 _amount) public  {... */\n    tag_21:\n        /* \"Interface.sol\":1539:1549  calAddress */\n      0x00\n      0x00\n      swap1\n      sload\n      swap1\n      0x0100\n      exp\n      swap1\n      div\n      0xffffffffffffffffffffffffffffffffffffffff\n      and\n        /* \"Interface.sol\":1534:1560  ICal(calAddress).substract */\n      0xffffffffffffffffffffffffffffffffffffffff\n      and\n      0x5d4e1e5c\n        /* \"Interface.sol\":1561:1565  eggs */\n      sload(0x03)\n        /* \"Interface.sol\":1566:1573  _amount */\n      dup4\n        /* \"Interface.sol\":1534:1574  ICal(calAddress).substract(eggs,_amount) */\n      mload(0x40)\n      dup4\n      0xffffffff\n      and\n      0xe0\n      shl\n      dup2\n      mstore\n      0x04\n      add\n      tag_49\n      swap3\n      swap2\n      swap1\n      tag_50\n      jump\t// in\n    tag_49:\n      0x20\n      mload(0x40)\n      dup1\n      dup4\n      sub\n      dup2\n      0x00\n      dup8\n      gas\n      call\n      iszero\n      dup1\n      iszero\n      tag_52\n      jumpi\n      returndatacopy(0x00, 0x00, returndatasize)\n      revert(0x00, returndatasize)\n    tag_52:\n      pop\n      pop\n      pop\n      pop\n      mload(0x40)\n      returndatasize\n      not(0x1f)\n      0x1f\n      dup3\n      add\n      and\n      dup3\n      add\n      dup1\n      0x40\n      mstore\n      pop\n      dup2\n      add\n      swap1\n      tag_53\n      swap2\n      swap1\n      tag_54\n      jump\t// in\n    tag_53:\n        /* \"Interface.sol\":1527:1531  eggs */\n      0x03\n        /* \"Interface.sol\":1527:1574  eggs = ICal(calAddress).substract(eggs,_amount) */\n      dup2\n      swap1\n      sstore\n      pop\n        /* \"Interface.sol\":1475:1581  function subEggs(uint256 _amount) public  {... */\n      pop\n      jump\t// out\n        /* \"Interface.sol\":1245:1354  function subFlour(uint256 _amount) public  {... */\n    tag_24:\n        /* \"Interface.sol\":1311:1321  calAddress */\n      0x00\n      0x00\n      swap1\n      sload\n      swap1\n      0x0100\n      exp\n      swap1\n      div\n      0xffffffffffffffffffffffffffffffffffffffff\n      and\n        /* \"Interface.sol\":1306:1332  ICal(calAddress).substract */\n      0xffffffffffffffffffffffffffffffffffffffff\n      and\n      0x5d4e1e5c\n        /* \"Interface.sol\":1333:1338  flour */\n      sload(0x01)\n        /* \"Interface.sol\":1339:1346  _amount */\n      dup4\n        /* \"Interface.sol\":1306:1347  ICal(calAddress).substract(flour,_amount) */\n      mload(0x40)\n      dup4\n      0xffffffff\n      and\n      0xe0\n      shl\n      dup2\n      mstore\n      0x04\n      add\n      tag_56\n      swap3\n      swap2\n      swap1\n      tag_50\n      jump\t// in\n    tag_56:\n      0x20\n      mload(0x40)\n      dup1\n      dup4\n      sub\n      dup2\n      0x00\n      dup8\n      gas\n      call\n      iszero\n      dup1\n      iszero\n      tag_58\n      jumpi\n      returndatacopy(0x00, 0x00, returndatasize)\n      revert(0x00, returndatasize)\n    tag_58:\n      pop\n      pop\n      pop\n      pop\n      mload(0x40)\n      returndatasize\n      not(0x1f)\n      0x1f\n      dup3\n      add\n      and\n      dup3\n      add\n      dup1\n      0x40\n      mstore\n      pop\n      dup2\n      add\n      swap1\n      tag_59\n      swap2\n      swap1\n      tag_54\n      jump\t// in\n    tag_59:\n        /* \"Interface.sol\":1298:1303  flour */\n      0x01\n        /* \"Interface.sol\":1298:1347  flour = ICal(calAddress).substract(flour,_amount) */\n      dup2\n      swap1\n      sstore\n      pop\n        /* \"Interface.sol\":1245:1354  function subFlour(uint256 _amount) public  {... */\n      pop\n      jump\t// out\n        /* \"Interface.sol\":1360:1469  function subSugar(uint256 _amount) public  {... */\n    tag_27:\n        /* \"Interface.sol\":1426:1436  calAddress */\n      0x00\n      0x00\n      swap1\n      sload\n      swap1\n      0x0100\n      exp\n      swap1\n      div\n      0xffffffffffffffffffffffffffffffffffffffff\n      and\n        /* \"Interface.sol\":1421:1447  ICal(calAddress).substract */\n      0xffffffffffffffffffffffffffffffffffffffff\n      and\n      0x5d4e1e5c\n        /* \"Interface.sol\":1448:1453  sugar */\n      sload(0x02)\n        /* \"Interface.sol\":1454:1461  _amount */\n      dup4\n        /* \"Interface.sol\":1421:1462  ICal(calAddress).substract(sugar,_amount) */\n      mload(0x40)\n      dup4\n      0xffffffff\n      and\n      0xe0\n      shl\n      dup2\n      mstore\n      0x04\n      add\n      tag_61\n      swap3\n      swap2\n      swap1\n      tag_50\n      jump\t// in\n    tag_61:\n      0x20\n      mload(0x40)\n      dup1\n      dup4\n      sub\n      dup2\n      0x00\n      dup8\n      gas\n      call\n      iszero\n      dup1\n      iszero\n      tag_63\n      jumpi\n      returndatacopy(0x00, 0x00, returndatasize)\n      revert(0x00, returndatasize)\n    tag_63:\n      pop\n      pop\n      pop\n      pop\n      mload(0x40)\n      returndatasize\n      not(0x1f)\n      0x1f\n      dup3\n      add\n      and\n      dup3\n      add\n      dup1\n      0x40\n      mstore\n      pop\n      dup2\n      add\n      swap1\n      tag_64\n      swap2\n      swap1\n      tag_54\n      jump\t// in\n    tag_64:\n        /* \"Interface.sol\":1413:1418  sugar */\n      0x02\n        /* \"Interface.sol\":1413:1462  sugar = ICal(calAddress).substract(sugar,_amount) */\n      dup2\n      swap1\n      sstore\n      pop\n        /* \"Interface.sol\":1360:1469  function subSugar(uint256 _amount) public  {... */\n      pop\n      jump\t// out\n        /* \"Interface.sol\":865:885  uint256 public sugar */\n    tag_29:\n      sload(0x02)\n      dup2\n      jump\t// out\n        /* \"Interface.sol\":839:859  uint256 public flour */\n    tag_33:\n      sload(0x01)\n      dup2\n      jump\t// out\n        /* \"Interface.sol\":1135:1235  function addEggs(uint256 _amount) public  {... */\n    tag_37:\n        /* \"Interface.sol\":1199:1209  calAddress */\n      0x00\n      0x00\n      swap1\n      sload\n      swap1\n      0x0100\n      exp\n      swap1\n      div\n      0xffffffffffffffffffffffffffffffffffffffff\n      and\n        /* \"Interface.sol\":1194:1214  ICal(calAddress).add */\n      0xffffffffffffffffffffffffffffffffffffffff\n      and\n      0x771602f7\n        /* \"Interface.sol\":1215:1219  eggs */\n      sload(0x03)\n        /* \"Interface.sol\":1220:1227  _amount */\n      dup4\n        /* \"Interface.sol\":1194:1228  ICal(calAddress).add(eggs,_amount) */\n      mload(0x40)\n      dup4\n      0xffffffff\n      and\n      0xe0\n      shl\n      dup2\n      mstore\n      0x04\n      add\n      tag_66\n      swap3\n      swap2\n      swap1\n      tag_50\n      jump\t// in\n    tag_66:\n      0x20\n      mload(0x40)\n      dup1\n      dup4\n      sub\n      dup2\n      0x00\n      dup8\n      gas\n      call\n      iszero\n      dup1\n      iszero\n      tag_68\n      jumpi\n      returndatacopy(0x00, 0x00, returndatasize)\n      revert(0x00, returndatasize)\n    tag_68:\n      pop\n      pop\n      pop\n      pop\n      mload(0x40)\n      returndatasize\n      not(0x1f)\n      0x1f\n      dup3\n      add\n      and\n      dup3\n      add\n      dup1\n      0x40\n      mstore\n      pop\n      dup2\n      add\n      swap1\n      tag_69\n      swap2\n      swap1\n      tag_54\n      jump\t// in\n    tag_69:\n        /* \"Interface.sol\":1187:1191  eggs */\n      0x03\n        /* \"Interface.sol\":1187:1228  eggs = ICal(calAddress).add(eggs,_amount) */\n      dup2\n      swap1\n      sstore\n      pop\n        /* \"Interface.sol\":1135:1235  function addEggs(uint256 _amount) public  {... */\n      pop\n      jump\t// out\n        /* \"Interface.sol\":917:1020  function addFlour(uint256 _amount) public  {... */\n    tag_40:\n        /* \"Interface.sol\":983:993  calAddress */\n      0x00\n      0x00\n      swap1\n      sload\n      swap1\n      0x0100\n      exp\n      swap1\n      div\n      0xffffffffffffffffffffffffffffffffffffffff\n      and\n        /* \"Interface.sol\":978:998  ICal(calAddress).add */\n      0xffffffffffffffffffffffffffffffffffffffff\n      and\n      0x771602f7\n        /* \"Interface.sol\":999:1004  flour */\n      sload(0x01)\n        /* \"Interface.sol\":1005:1012  _amount */\n      dup4\n        /* \"Interface.sol\":978:1013  ICal(calAddress).add(flour,_amount) */\n      mload(0x40)\n      dup4\n      0xffffffff\n      and\n      0xe0\n      shl\n      dup2\n      mstore\n      0x04\n      add\n      tag_71\n      swap3\n      swap2\n      swap1\n      tag_50\n      jump\t// in\n    tag_71:\n      0x20\n      mload(0x40)\n      dup1\n      dup4\n      sub\n      dup2\n      0x00\n      dup8\n      gas\n      call\n      iszero\n      dup1\n      iszero\n      tag_73\n      jumpi\n      returndatacopy(0x00, 0x00, returndatasize)\n      revert(0x00, returndatasize)\n    tag_73:\n      pop\n      pop\n      pop\n      pop\n      mload(0x40)\n      returndatasize\n      not(0x1f)\n      0x1f\n      dup3\n      add\n      and\n      dup3\n      add\n      dup1\n      0x40\n      mstore\n      pop\n      dup2\n      add\n      swap1\n      tag_74\n      swap2\n      swap1\n      tag_54\n      jump\t// in\n    tag_74:\n        /* \"Interface.sol\":970:975  flour */\n      0x01\n        /* \"Interface.sol\":970:1013  flour = ICal(calAddress).add(flour,_amount) */\n      dup2\n      swap1\n      sstore\n      pop\n        /* \"Interface.sol\":917:1020  function addFlour(uint256 _amount) public  {... */\n      pop\n      jump\t// out\n        /* \"Interface.sol\":891:910  uint256 public eggs */\n    tag_42:\n      sload(0x03)\n      dup2\n      jump\t// out\n        /* \"Interface.sol\":1026:1129  function addSugar(uint256 _amount) public  {... */\n    tag_46:\n        /* \"Interface.sol\":1092:1102  calAddress */\n      0x00\n      0x00\n      swap1\n      sload\n      swap1\n      0x0100\n      exp\n      swap1\n      div\n      0xffffffffffffffffffffffffffffffffffffffff\n      and\n        /* \"Interface.sol\":1087:1107  ICal(calAddress).add */\n      0xffffffffffffffffffffffffffffffffffffffff\n      and\n      0x771602f7\n        /* \"Interface.sol\":1108:1113  sugar */\n      sload(0x02)\n        /* \"Interface.sol\":1114:1121  _amount */\n      dup4\n        /* \"Interface.sol\":1087:1122  ICal(calAddress).add(sugar,_amount) */\n      mload(0x40)\n      dup4\n      0xffffffff\n      and\n      0xe0\n      shl\n      dup2\n      mstore\n      0x04\n      add\n      tag_76\n      swap3\n      swap2\n      swap1\n      tag_50\n      jump\t// in\n    tag_76:\n      0x20\n      mload(0x40)\n      dup1\n      dup4\n      sub\n      dup2\n      0x00\n      dup8\n      gas\n      call\n      iszero\n      dup1\n      iszero\n      tag_78\n      jumpi\n      returndatacopy(0x00, 0x00, returndatasize)\n      revert(0x00, returndatasize)\n    tag_78:\n      pop\n      pop\n      pop\n      pop\n      mload(0x40)\n      returndatasize\n      not(0x1f)\n      0x1f\n      dup3\n      add\n      and\n      dup3\n      add\n      dup1\n      0x40\n      mstore\n      pop\n      dup2\n      add\n      swap1\n      tag_79\n      swap2\n      swap1\n      tag_54\n      jump\t// in\n    tag_79:\n        /* \"Interface.sol\":1079:1084  sugar */\n      0x02\n        /* \"Interface.sol\":1079:1122  sugar = ICal(calAddress).add(sugar,_amount) */\n      dup2\n      swap1\n      sstore\n      pop\n        /* \"Interface.sol\":1026:1129  function addSugar(uint256 _amount) public  {... */\n      pop\n      jump\t// out\n        /* \"#utility.yul\":7:84   */\n    tag_80:\n        /* \"#utility.yul\":44:51   */\n      0x00\n        /* \"#utility.yul\":73:78   */\n      dup2\n        /* \"#utility.yul\":62:78   */\n      swap1\n      pop\n        /* \"#utility.yul\":7:84   */\n      swap2\n      swap1\n      pop\n      jump\t// out\n        /* \"#utility.yul\":90:208   */\n    tag_81:\n        /* \"#utility.yul\":177:201   */\n      tag_91\n        /* \"#utility.yul\":195:200   */\n      dup2\n        /* \"#utility.yul\":177:201   */\n      tag_80\n      jump\t// in\n    tag_91:\n        /* \"#utility.yul\":172:175   */\n      dup3\n        /* \"#utility.yul\":165:202   */\n      mstore\n        /* \"#utility.yul\":90:208   */\n      pop\n      pop\n      jump\t// out\n        /* \"#utility.yul\":214:656   */\n    tag_17:\n        /* \"#utility.yul\":363:367   */\n      0x00\n        /* \"#utility.yul\":401:403   */\n      0x60\n        /* \"#utility.yul\":390:399   */\n      dup3\n        /* \"#utility.yul\":386:404   */\n      add\n        /* \"#utility.yul\":378:404   */\n      swap1\n      pop\n        /* \"#utility.yul\":414:485   */\n      tag_93\n        /* \"#utility.yul\":482:483   */\n      0x00\n        /* \"#utility.yul\":471:480   */\n      dup4\n        /* \"#utility.yul\":467:484   */\n      add\n        /* \"#utility.yul\":458:464   */\n      dup7\n        /* \"#utility.yul\":414:485   */\n      tag_81\n      jump\t// in\n    tag_93:\n        /* \"#utility.yul\":495:567   */\n      tag_94\n        /* \"#utility.yul\":563:565   */\n      0x20\n        /* \"#utility.yul\":552:561   */\n      dup4\n        /* \"#utility.yul\":548:566   */\n      add\n        /* \"#utility.yul\":539:545   */\n      dup6\n        /* \"#utility.yul\":495:567   */\n      tag_81\n      jump\t// in\n    tag_94:\n        /* \"#utility.yul\":577:649   */\n      tag_95\n        /* \"#utility.yul\":645:647   */\n      0x40\n        /* \"#utility.yul\":634:643   */\n      dup4\n        /* \"#utility.yul\":630:648   */\n      add\n        /* \"#utility.yul\":621:627   */\n      dup5\n        /* \"#utility.yul\":577:649   */\n      tag_81\n      jump\t// in\n    tag_95:\n        /* \"#utility.yul\":214:656   */\n      swap5\n      swap4\n      pop\n      pop\n      pop\n      pop\n      jump\t// out\n        /* \"#utility.yul\":743:860   */\n    tag_83:\n        /* \"#utility.yul\":852:853   */\n      0x00\n        /* \"#utility.yul\":849:850   */\n      0x00\n        /* \"#utility.yul\":842:854   */\n      revert\n        /* \"#utility.yul\":989:1111   */\n    tag_85:\n        /* \"#utility.yul\":1062:1086   */\n      tag_100\n        /* \"#utility.yul\":1080:1085   */\n      dup2\n        /* \"#utility.yul\":1062:1086   */\n      tag_80\n      jump\t// in\n    tag_100:\n        /* \"#utility.yul\":1055:1060   */\n      dup2\n        /* \"#utility.yul\":1052:1087   */\n      eq\n        /* \"#utility.yul\":1042:1105   */\n      tag_101\n      jumpi\n        /* \"#utility.yul\":1101:1102   */\n      0x00\n        /* \"#utility.yul\":1098:1099   */\n      0x00\n        /* \"#utility.yul\":1091:1103   */\n      revert\n        /* \"#utility.yul\":1042:1105   */\n    tag_101:\n        /* \"#utility.yul\":989:1111   */\n      pop\n      jump\t// out\n        /* \"#utility.yul\":1117:1256   */\n    tag_86:\n        /* \"#utility.yul\":1163:1168   */\n      0x00\n        /* \"#utility.yul\":1201:1207   */\n      dup2\n        /* \"#utility.yul\":1188:1208   */\n      calldataload\n        /* \"#utility.yul\":1179:1208   */\n      swap1\n      pop\n        /* \"#utility.yul\":1217:1250   */\n      tag_103\n        /* \"#utility.yul\":1244:1249   */\n      dup2\n        /* \"#utility.yul\":1217:1250   */\n      tag_85\n      jump\t// in\n    tag_103:\n        /* \"#utility.yul\":1117:1256   */\n      swap3\n      swap2\n      pop\n      pop\n      jump\t// out\n        /* \"#utility.yul\":1262:1591   */\n    tag_20:\n        /* \"#utility.yul\":1321:1327   */\n      0x00\n        /* \"#utility.yul\":1370:1372   */\n      0x20\n        /* \"#utility.yul\":1358:1367   */\n      dup3\n        /* \"#utility.yul\":1349:1356   */\n      dup5\n        /* \"#utility.yul\":1345:1368   */\n      sub\n        /* \"#utility.yul\":1341:1373   */\n      slt\n        /* \"#utility.yul\":1338:1457   */\n      iszero\n      tag_105\n      jumpi\n        /* \"#utility.yul\":1376:1455   */\n      tag_106\n      tag_83\n      jump\t// in\n    tag_106:\n        /* \"#utility.yul\":1338:1457   */\n    tag_105:\n        /* \"#utility.yul\":1496:1497   */\n      0x00\n        /* \"#utility.yul\":1521:1574   */\n      tag_107\n        /* \"#utility.yul\":1566:1573   */\n      dup5\n        /* \"#utility.yul\":1557:1563   */\n      dup3\n        /* \"#utility.yul\":1546:1555   */\n      dup6\n        /* \"#utility.yul\":1542:1564   */\n      add\n        /* \"#utility.yul\":1521:1574   */\n      tag_86\n      jump\t// in\n    tag_107:\n        /* \"#utility.yul\":1511:1574   */\n      swap2\n      pop\n        /* \"#utility.yul\":1467:1584   */\n      pop\n        /* \"#utility.yul\":1262:1591   */\n      swap3\n      swap2\n      pop\n      pop\n      jump\t// out\n        /* \"#utility.yul\":1597:1819   */\n    tag_31:\n        /* \"#utility.yul\":1690:1694   */\n      0x00\n        /* \"#utility.yul\":1728:1730   */\n      0x20\n        /* \"#utility.yul\":1717:1726   */\n      dup3\n        /* \"#utility.yul\":1713:1731   */\n      add\n        /* \"#utility.yul\":1705:1731   */\n      swap1\n      pop\n        /* \"#utility.yul\":1741:1812   */\n      tag_109\n        /* \"#utility.yul\":1809:1810   */\n      0x00\n        /* \"#utility.yul\":1798:1807   */\n      dup4\n        /* \"#utility.yul\":1794:1811   */\n      add\n        /* \"#utility.yul\":1785:1791   */\n      dup5\n        /* \"#utility.yul\":1741:1812   */\n      tag_81\n      jump\t// in\n    tag_109:\n        /* \"#utility.yul\":1597:1819   */\n      swap3\n      swap2\n      pop\n      pop\n      jump\t// out\n        /* \"#utility.yul\":1825:2157   */\n    tag_50:\n        /* \"#utility.yul\":1946:1950   */\n      0x00\n        /* \"#utility.yul\":1984:1986   */\n      0x40\n        /* \"#utility.yul\":1973:1982   */\n      dup3\n        /* \"#utility.yul\":1969:1987   */\n      add\n        /* \"#utility.yul\":1961:1987   */\n      swap1\n      pop\n        /* \"#utility.yul\":1997:2068   */\n      tag_111\n        /* \"#utility.yul\":2065:2066   */\n      0x00\n        /* \"#utility.yul\":2054:2063   */\n      dup4\n        /* \"#utility.yul\":2050:2067   */\n      add\n        /* \"#utility.yul\":2041:2047   */\n      dup6\n        /* \"#utility.yul\":1997:2068   */\n      tag_81\n      jump\t// in\n    tag_111:\n        /* \"#utility.yul\":2078:2150   */\n      tag_112\n        /* \"#utility.yul\":2146:2148   */\n      0x20\n        /* \"#utility.yul\":2135:2144   */\n      dup4\n        /* \"#utility.yul\":2131:2149   */\n      add\n        /* \"#utility.yul\":2122:2128   */\n      dup5\n        /* \"#utility.yul\":2078:2150   */\n      tag_81\n      jump\t// in\n    tag_112:\n        /* \"#utility.yul\":1825:2157   */\n      swap4\n      swap3\n      pop\n      pop\n      pop\n      jump\t// out\n        /* \"#utility.yul\":2163:2306   */\n    tag_87:\n        /* \"#utility.yul\":2220:2225   */\n      0x00\n        /* \"#utility.yul\":2251:2257   */\n      dup2\n        /* \"#utility.yul\":2245:2258   */\n      mload\n        /* \"#utility.yul\":2236:2258   */\n      swap1\n      pop\n        /* \"#utility.yul\":2267:2300   */\n      tag_114\n        /* \"#utility.yul\":2294:2299   */\n      dup2\n        /* \"#utility.yul\":2267:2300   */\n      tag_85\n      jump\t// in\n    tag_114:\n        /* \"#utility.yul\":2163:2306   */\n      swap3\n      swap2\n      pop\n      pop\n      jump\t// out\n        /* \"#utility.yul\":2312:2663   */\n    tag_54:\n        /* \"#utility.yul\":2382:2388   */\n      0x00\n        /* \"#utility.yul\":2431:2433   */\n      0x20\n        /* \"#utility.yul\":2419:2428   */\n      dup3\n        /* \"#utility.yul\":2410:2417   */\n      dup5\n        /* \"#utility.yul\":2406:2429   */\n      sub\n        /* \"#utility.yul\":2402:2434   */\n      slt\n        /* \"#utility.yul\":2399:2518   */\n      iszero\n      tag_116\n      jumpi\n        /* \"#utility.yul\":2437:2516   */\n      tag_117\n      tag_83\n      jump\t// in\n    tag_117:\n        /* \"#utility.yul\":2399:2518   */\n    tag_116:\n        /* \"#utility.yul\":2557:2558   */\n      0x00\n        /* \"#utility.yul\":2582:2646   */\n      tag_118\n        /* \"#utility.yul\":2638:2645   */\n      dup5\n        /* \"#utility.yul\":2629:2635   */\n      dup3\n        /* \"#utility.yul\":2618:2627   */\n      dup6\n        /* \"#utility.yul\":2614:2636   */\n      add\n        /* \"#utility.yul\":2582:2646   */\n      tag_87\n      jump\t// in\n    tag_118:\n        /* \"#utility.yul\":2572:2646   */\n      swap2\n      pop\n        /* \"#utility.yul\":2528:2656   */\n      pop\n        /* \"#utility.yul\":2312:2663   */\n      swap3\n      swap2\n      pop\n      pop\n      jump\t// out\n\n    auxdata: 0xa264697066735822122098be2b863b11e7c916dc63c4cc7c537b04b6e766ed1865ee10a62c84a419b14e64736f6c634300081e0033\n}\n",
				"bytecode": {
					"linkReferences": {},
					"object": "608060405273d9145cce52d386f254917e481eb44e9943f391385f5f6101000a81548173ffffffffffffffffffffffffffffffffffffffff021916908373ffffffffffffffffffffffffffffffffffffffff1602179055503480156061575f5ffd5b5061072a8061006f5f395ff3fe608060405234801561000f575f5ffd5b506004361061009c575f3560e01c8063bff7e49f11610064578063bff7e49f14610132578063c3179b9114610150578063d3e19de71461016c578063e33f76cf14610188578063fb49c3c9146101a65761009c565b8063410d59cc146100a05780636071214d146100c057806361d87b2a146100dc57806363dcd2d4146100f8578063a0e0e13c14610114575b5f5ffd5b6100a86101c2565b6040516100b7939291906105e7565b60405180910390f35b6100da60048036038101906100d5919061064a565b6101d9565b005b6100f660048036038101906100f1919061064a565b61027f565b005b610112600480360381019061010d919061064a565b610325565b005b61011c6103cb565b6040516101299190610675565b60405180910390f35b61013a6103d1565b6040516101479190610675565b60405180910390f35b61016a6004803603810190610165919061064a565b6103d7565b005b6101866004803603810190610181919061064a565b61047d565b005b610190610523565b60405161019d9190610675565b60405180910390f35b6101c060048036038101906101bb919061064a565b610529565b005b5f5f5f600154925060025491506003549050909192565b5f5f9054906101000a900473ffffffffffffffffffffffffffffffffffffffff1673ffffffffffffffffffffffffffffffffffffffff16635d4e1e5c600354836040518363ffffffff1660e01b815260040161023692919061068e565b6020604051808303815f875af1158015610252573d5f5f3e3d5ffd5b505050506040513d601f19601f8201168201806040525081019061027691906106c9565b60038190555050565b5f5f9054906101000a900473ffffffffffffffffffffffffffffffffffffffff1673ffffffffffffffffffffffffffffffffffffffff16635d4e1e5c600154836040518363ffffffff1660e01b81526004016102dc92919061068e565b6020604051808303815f875af11580156102f8573d5f5f3e3d5ffd5b505050506040513d601f19601f8201168201806040525081019061031c91906106c9565b60018190555050565b5f5f9054906101000a900473ffffffffffffffffffffffffffffffffffffffff1673ffffffffffffffffffffffffffffffffffffffff16635d4e1e5c600254836040518363ffffffff1660e01b815260040161038292919061068e565b6020604051808303815f875af115801561039e573d5f5f3e3d5ffd5b505050506040513d601f19601f820116820180604052508101906103c291906106c9565b60028190555050565b60025481565b60015481565b5f5f9054906101000a900473ffffffffffffffffffffffffffffffffffffffff1673ffffffffffffffffffffffffffffffffffffffff1663771602f7600354836040518363ffffffff1660e01b815260040161043492919061068e565b6020604051808303815f875af1158015610450573d5f5f3e3d5ffd5b505050506040513d601f19601f8201168201806040525081019061047491906106c9565b60038190555050565b5f5f9054906101000a900473ffffffffffffffffffffffffffffffffffffffff1673ffffffffffffffffffffffffffffffffffffffff1663771602f7600154836040518363ffffffff1660e01b81526004016104da92919061068e565b6020604051808303815f875af11580156104f6573d5f5f3e3d5ffd5b505050506040513d601f19601f8201168201806040525081019061051a91906106c9565b60018190555050565b60035481565b5f5f9054906101000a900473ffffffffffffffffffffffffffffffffffffffff1673ffffffffffffffffffffffffffffffffffffffff1663771602f7600254836040518363ffffffff1660e01b815260040161058692919061068e565b6020604051808303815f875af11580156105a2573d5f5f3e3d5ffd5b505050506040513d601f19601f820116820180604052508101906105c691906106c9565b60028190555050565b5f819050919050565b6105e1816105cf565b82525050565b5f6060820190506105fa5f8301866105d8565b61060760208301856105d8565b61061460408301846105d8565b949350505050565b5f5ffd5b610629816105cf565b8114610633575f5ffd5b50565b5f8135905061064481610620565b92915050565b5f6020828403121561065f5761065e61061c565b5b5f61066c84828501610636565b91505092915050565b5f6020820190506106885f8301846105d8565b92915050565b5f6040820190506106a15f8301856105d8565b6106ae60208301846105d8565b9392505050565b5f815190506106c381610620565b92915050565b5f602082840312156106de576106dd61061c565b5b5f6106eb848285016106b5565b9150509291505056fea264697066735822122098be2b863b11e7c916dc63c4cc7c537b04b6e766ed1865ee10a62c84a419b14e64736f6c634300081e0033",
					"opcodes": "PUSH1 0x80 PUSH1 0x40 MSTORE PUSH20 0xD9145CCE52D386F254917E481EB44E9943F39138 PUSH0 PUSH0 PUSH2 0x100 EXP DUP2 SLOAD DUP2 PUSH20 0xFFFFFFFFFFFFFFFFFFFFFFFFFFFFFFFFFFFFFFFF MUL NOT AND SWAP1 DUP4 PUSH20 0xFFFFFFFFFFFFFFFFFFFFFFFFFFFFFFFFFFFFFFFF AND MUL OR SWAP1 SSTORE POP CALLVALUE DUP1 ISZERO PUSH1 0x61 JUMPI PUSH0 PUSH0 REVERT JUMPDEST POP PUSH2 0x72A DUP1 PUSH2 0x6F PUSH0 CODECOPY PUSH0 RETURN INVALID PUSH1 0x80 PUSH1 0x40 MSTORE CALLVALUE DUP1 ISZERO PUSH2 0xF JUMPI PUSH0 PUSH0 REVERT JUMPDEST POP PUSH1 0x4 CALLDATASIZE LT PUSH2 0x9C JUMPI PUSH0 CALLDATALOAD PUSH1 0xE0 SHR DUP1 PUSH4 0xBFF7E49F GT PUSH2 0x64 JUMPI DUP1 PUSH4 0xBFF7E49F EQ PUSH2 0x132 JUMPI DUP1 PUSH4 0xC3179B91 EQ PUSH2 0x150 JUMPI DUP1 PUSH4 0xD3E19DE7 EQ PUSH2 0x16C JUMPI DUP1 PUSH4 0xE33F76CF EQ PUSH2 0x188 JUMPI DUP1 PUSH4 0xFB49C3C9 EQ PUSH2 0x1A6 JUMPI PUSH2 0x9C JUMP JUMPDEST DUP1 PUSH4 0x410D59CC EQ PUSH2 0xA0 JUMPI DUP1 PUSH4 0x6071214D EQ PUSH2 0xC0 JUMPI DUP1 PUSH4 0x61D87B2A EQ PUSH2 0xDC JUMPI DUP1 PUSH4 0x63DCD2D4 EQ PUSH2 0xF8 JUMPI DUP1 PUSH4 0xA0E0E13C EQ PUSH2 0x114 JUMPI JUMPDEST PUSH0 PUSH0 REVERT JUMPDEST PUSH2 0xA8 PUSH2 0x1C2 JUMP JUMPDEST PUSH1 0x40 MLOAD PUSH2 0xB7 SWAP4 SWAP3 SWAP2 SWAP1 PUSH2 0x5E7 JUMP JUMPDEST PUSH1 0x40 MLOAD DUP1 SWAP2 SUB SWAP1 RETURN JUMPDEST PUSH2 0xDA PUSH1 0x4 DUP1 CALLDATASIZE SUB DUP2 ADD SWAP1 PUSH2 0xD5 SWAP2 SWAP1 PUSH2 0x64A JUMP JUMPDEST PUSH2 0x1D9 JUMP JUMPDEST STOP JUMPDEST PUSH2 0xF6 PUSH1 0x4 DUP1 CALLDATASIZE SUB DUP2 ADD SWAP1 PUSH2 0xF1 SWAP2 SWAP1 PUSH2 0x64A JUMP JUMPDEST PUSH2 0x27F JUMP JUMPDEST STOP JUMPDEST PUSH2 0x112 PUSH1 0x4 DUP1 CALLDATASIZE SUB DUP2 ADD SWAP1 PUSH2 0x10D SWAP2 SWAP1 PUSH2 0x64A JUMP JUMPDEST PUSH2 0x325 JUMP JUMPDEST STOP JUMPDEST PUSH2 0x11C PUSH2 0x3CB JUMP JUMPDEST PUSH1 0x40 MLOAD PUSH2 0x129 SWAP2 SWAP1 PUSH2 0x675 JUMP JUMPDEST PUSH1 0x40 MLOAD DUP1 SWAP2 SUB SWAP1 RETURN JUMPDEST PUSH2 0x13A PUSH2 0x3D1 JUMP JUMPDEST PUSH1 0x40 MLOAD PUSH2 0x147 SWAP2 SWAP1 PUSH2 0x675 JUMP JUMPDEST PUSH1 0x40 MLOAD DUP1 SWAP2 SUB SWAP1 RETURN JUMPDEST PUSH2 0x16A PUSH1 0x4 DUP1 CALLDATASIZE SUB DUP2 ADD SWAP1 PUSH2 0x165 SWAP2 SWAP1 PUSH2 0x64A JUMP JUMPDEST PUSH2 0x3D7 JUMP JUMPDEST STOP JUMPDEST PUSH2 0x186 PUSH1 0x4 DUP1 CALLDATASIZE SUB DUP2 ADD SWAP1 PUSH2 0x181 SWAP2 SWAP1 PUSH2 0x64A JUMP JUMPDEST PUSH2 0x47D JUMP JUMPDEST STOP JUMPDEST PUSH2 0x190 PUSH2 0x523 JUMP JUMPDEST PUSH1 0x40 MLOAD PUSH2 0x19D SWAP2 SWAP1 PUSH2 0x675 JUMP JUMPDEST PUSH1 0x40 MLOAD DUP1 SWAP2 SUB SWAP1 RETURN JUMPDEST PUSH2 0x1C0 PUSH1 0x4 DUP1 CALLDATASIZE SUB DUP2 ADD SWAP1 PUSH2 0x1BB SWAP2 SWAP1 PUSH2 0x64A JUMP JUMPDEST PUSH2 0x529 JUMP JUMPDEST STOP JUMPDEST PUSH0 PUSH0 PUSH0 PUSH1 0x1 SLOAD SWAP3 POP PUSH1 0x2 SLOAD SWAP2 POP PUSH1 0x3 SLOAD SWAP1 POP SWAP1 SWAP2 SWAP3 JUMP JUMPDEST PUSH0 PUSH0 SWAP1 SLOAD SWAP1 PUSH2 0x100 EXP SWAP1 DIV PUSH20 0xFFFFFFFFFFFFFFFFFFFFFFFFFFFFFFFFFFFFFFFF AND PUSH20 0xFFFFFFFFFFFFFFFFFFFFFFFFFFFFFFFFFFFFFFFF AND PUSH4 0x5D4E1E5C PUSH1 0x3 SLOAD DUP4 PUSH1 0x40 MLOAD DUP4 PUSH4 0xFFFFFFFF AND PUSH1 0xE0 SHL DUP2 MSTORE PUSH1 0x4 ADD PUSH2 0x236 SWAP3 SWAP2 SWAP1 PUSH2 0x68E JUMP JUMPDEST PUSH1 0x20 PUSH1 0x40 MLOAD DUP1 DUP4 SUB DUP2 PUSH0 DUP8 GAS CALL ISZERO DUP1 ISZERO PUSH2 0x252 JUMPI RETURNDATASIZE PUSH0 PUSH0 RETURNDATACOPY RETURNDATASIZE PUSH0 REVERT JUMPDEST POP POP POP POP PUSH1 0x40 MLOAD RETURNDATASIZE PUSH1 0x1F NOT PUSH1 0x1F DUP3 ADD AND DUP3 ADD DUP1 PUSH1 0x40 MSTORE POP DUP2 ADD SWAP1 PUSH2 0x276 SWAP2 SWAP1 PUSH2 0x6C9 JUMP JUMPDEST PUSH1 0x3 DUP2 SWAP1 SSTORE POP POP JUMP JUMPDEST PUSH0 PUSH0 SWAP1 SLOAD SWAP1 PUSH2 0x100 EXP SWAP1 DIV PUSH20 0xFFFFFFFFFFFFFFFFFFFFFFFFFFFFFFFFFFFFFFFF AND PUSH20 0xFFFFFFFFFFFFFFFFFFFFFFFFFFFFFFFFFFFFFFFF AND PUSH4 0x5D4E1E5C PUSH1 0x1 SLOAD DUP4 PUSH1 0x40 MLOAD DUP4 PUSH4 0xFFFFFFFF AND PUSH1 0xE0 SHL DUP2 MSTORE PUSH1 0x4 ADD PUSH2 0x2DC SWAP3 SWAP2 SWAP1 PUSH2 0x68E JUMP JUMPDEST PUSH1 0x20 PUSH1 0x40 MLOAD DUP1 DUP4 SUB DUP2 PUSH0 DUP8 GAS CALL ISZERO DUP1 ISZERO PUSH2 0x2F8 JUMPI RETURNDATASIZE PUSH0 PUSH0 RETURNDATACOPY RETURNDATASIZE PUSH0 REVERT JUMPDEST POP POP POP POP PUSH1 0x40 MLOAD RETURNDATASIZE PUSH1 0x1F NOT PUSH1 0x1F DUP3 ADD AND DUP3 ADD DUP1 PUSH1 0x40 MSTORE POP DUP2 ADD SWAP1 PUSH2 0x31C SWAP2 SWAP1 PUSH2 0x6C9 JUMP JUMPDEST PUSH1 0x1 DUP2 SWAP1 SSTORE POP POP JUMP JUMPDEST PUSH0 PUSH0 SWAP1 SLOAD SWAP1 PUSH2 0x100 EXP SWAP1 DIV PUSH20 0xFFFFFFFFFFFFFFFFFFFFFFFFFFFFFFFFFFFFFFFF AND PUSH20 0xFFFFFFFFFFFFFFFFFFFFFFFFFFFFFFFFFFFFFFFF AND PUSH4 0x5D4E1E5C PUSH1 0x2 SLOAD DUP4 PUSH1 0x40 MLOAD DUP4 PUSH4 0xFFFFFFFF AND PUSH1 0xE0 SHL DUP2 MSTORE PUSH1 0x4 ADD PUSH2 0x382 SWAP3 SWAP2 SWAP1 PUSH2 0x68E JUMP JUMPDEST PUSH1 0x20 PUSH1 0x40 MLOAD DUP1 DUP4 SUB DUP2 PUSH0 DUP8 GAS CALL ISZERO DUP1 ISZERO PUSH2 0x39E JUMPI RETURNDATASIZE PUSH0 PUSH0 RETURNDATACOPY RETURNDATASIZE PUSH0 REVERT JUMPDEST POP POP POP POP PUSH1 0x40 MLOAD RETURNDATASIZE PUSH1 0x1F NOT PUSH1 0x1F DUP3 ADD AND DUP3 ADD DUP1 PUSH1 0x40 MSTORE POP DUP2 ADD SWAP1 PUSH2 0x3C2 SWAP2 SWAP1 PUSH2 0x6C9 JUMP JUMPDEST PUSH1 0x2 DUP2 SWAP1 SSTORE POP POP JUMP JUMPDEST PUSH1 0x2 SLOAD DUP2 JUMP JUMPDEST PUSH1 0x1 SLOAD DUP2 JUMP JUMPDEST PUSH0 PUSH0 SWAP1 SLOAD SWAP1 PUSH2 0x100 EXP SWAP1 DIV PUSH20 0xFFFFFFFFFFFFFFFFFFFFFFFFFFFFFFFFFFFFFFFF AND PUSH20 0xFFFFFFFFFFFFFFFFFFFFFFFFFFFFFFFFFFFFFFFF AND PUSH4 0x771602F7 PUSH1 0x3 SLOAD DUP4 PUSH1 0x40 MLOAD DUP4 PUSH4 0xFFFFFFFF AND PUSH1 0xE0 SHL DUP2 MSTORE PUSH1 0x4 ADD PUSH2 0x434 SWAP3 SWAP2 SWAP1 PUSH2 0x68E JUMP JUMPDEST PUSH1 0x20 PUSH1 0x40 MLOAD DUP1 DUP4 SUB DUP2 PUSH0 DUP8 GAS CALL ISZERO DUP1 ISZERO PUSH2 0x450 JUMPI RETURNDATASIZE PUSH0 PUSH0 RETURNDATACOPY RETURNDATASIZE PUSH0 REVERT JUMPDEST POP POP POP POP PUSH1 0x40 MLOAD RETURNDATASIZE PUSH1 0x1F NOT PUSH1 0x1F DUP3 ADD AND DUP3 ADD DUP1 PUSH1 0x40 MSTORE POP DUP2 ADD SWAP1 PUSH2 0x474 SWAP2 SWAP1 PUSH2 0x6C9 JUMP JUMPDEST PUSH1 0x3 DUP2 SWAP1 SSTORE POP POP JUMP JUMPDEST PUSH0 PUSH0 SWAP1 SLOAD SWAP1 PUSH2 0x100 EXP SWAP1 DIV PUSH20 0xFFFFFFFFFFFFFFFFFFFFFFFFFFFFFFFFFFFFFFFF AND PUSH20 0xFFFFFFFFFFFFFFFFFFFFFFFFFFFFFFFFFFFFFFFF AND PUSH4 0x771602F7 PUSH1 0x1 SLOAD DUP4 PUSH1 0x40 MLOAD DUP4 PUSH4 0xFFFFFFFF AND PUSH1 0xE0 SHL DUP2 MSTORE PUSH1 0x4 ADD PUSH2 0x4DA SWAP3 SWAP2 SWAP1 PUSH2 0x68E JUMP JUMPDEST PUSH1 0x20 PUSH1 0x40 MLOAD DUP1 DUP4 SUB DUP2 PUSH0 DUP8 GAS CALL ISZERO DUP1 ISZERO PUSH2 0x4F6 JUMPI RETURNDATASIZE PUSH0 PUSH0 RETURNDATACOPY RETURNDATASIZE PUSH0 REVERT JUMPDEST POP POP POP POP PUSH1 0x40 MLOAD RETURNDATASIZE PUSH1 0x1F NOT PUSH1 0x1F DUP3 ADD AND DUP3 ADD DUP1 PUSH1 0x40 MSTORE POP DUP2 ADD SWAP1 PUSH2 0x51A SWAP2 SWAP1 PUSH2 0x6C9 JUMP JUMPDEST PUSH1 0x1 DUP2 SWAP1 SSTORE POP POP JUMP JUMPDEST PUSH1 0x3 SLOAD DUP2 JUMP JUMPDEST PUSH0 PUSH0 SWAP1 SLOAD SWAP1 PUSH2 0x100 EXP SWAP1 DIV PUSH20 0xFFFFFFFFFFFFFFFFFFFFFFFFFFFFFFFFFFFFFFFF AND PUSH20 0xFFFFFFFFFFFFFFFFFFFFFFFFFFFFFFFFFFFFFFFF AND PUSH4 0x771602F7 PUSH1 0x2 SLOAD DUP4 PUSH1 0x40 MLOAD DUP4 PUSH4 0xFFFFFFFF AND PUSH1 0xE0 SHL DUP2 MSTORE PUSH1 0x4 ADD PUSH2 0x586 SWAP3 SWAP2 SWAP1 PUSH2 0x68E JUMP JUMPDEST PUSH1 0x20 PUSH1 0x40 MLOAD DUP1 DUP4 SUB DUP2 PUSH0 DUP8 GAS CALL ISZERO DUP1 ISZERO PUSH2 0x5A2 JUMPI RETURNDATASIZE PUSH0 PUSH0 RETURNDATACOPY RETURNDATASIZE PUSH0 REVERT JUMPDEST POP POP POP POP PUSH1 0x40 MLOAD RETURNDATASIZE PUSH1 0x1F NOT PUSH1 0x1F DUP3 ADD AND DUP3 ADD DUP1 PUSH1 0x40 MSTORE POP DUP2 ADD SWAP1 PUSH2 0x5C6 SWAP2 SWAP1 PUSH2 0x6C9 JUMP JUMPDEST PUSH1 0x2 DUP2 SWAP1 SSTORE POP POP JUMP JUMPDEST PUSH0 DUP2 SWAP1 POP SWAP2 SWAP1 POP JUMP JUMPDEST PUSH2 0x5E1 DUP2 PUSH2 0x5CF JUMP JUMPDEST DUP3 MSTORE POP POP JUMP JUMPDEST PUSH0 PUSH1 0x60 DUP3 ADD SWAP1 POP PUSH2 0x5FA PUSH0 DUP4 ADD DUP7 PUSH2 0x5D8 JUMP JUMPDEST PUSH2 0x607 PUSH1 0x20 DUP4 ADD DUP6 PUSH2 0x5D8 JUMP JUMPDEST PUSH2 0x614 PUSH1 0x40 DUP4 ADD DUP5 PUSH2 0x5D8 JUMP JUMPDEST SWAP5 SWAP4 POP POP POP POP JUMP JUMPDEST PUSH0 PUSH0 REVERT JUMPDEST PUSH2 0x629 DUP2 PUSH2 0x5CF JUMP JUMPDEST DUP2 EQ PUSH2 0x633 JUMPI PUSH0 PUSH0 REVERT JUMPDEST POP JUMP JUMPDEST PUSH0 DUP2 CALLDATALOAD SWAP1 POP PUSH2 0x644 DUP2 PUSH2 0x620 JUMP JUMPDEST SWAP3 SWAP2 POP POP JUMP JUMPDEST PUSH0 PUSH1 0x20 DUP3 DUP5 SUB SLT ISZERO PUSH2 0x65F JUMPI PUSH2 0x65E PUSH2 0x61C JUMP JUMPDEST JUMPDEST PUSH0 PUSH2 0x66C DUP5 DUP3 DUP6 ADD PUSH2 0x636 JUMP JUMPDEST SWAP2 POP POP SWAP3 SWAP2 POP POP JUMP JUMPDEST PUSH0 PUSH1 0x20 DUP3 ADD SWAP1 POP PUSH2 0x688 PUSH0 DUP4 ADD DUP5 PUSH2 0x5D8 JUMP JUMPDEST SWAP3 SWAP2 POP POP JUMP JUMPDEST PUSH0 PUSH1 0x40 DUP3 ADD SWAP1 POP PUSH2 0x6A1 PUSH0 DUP4 ADD DUP6 PUSH2 0x5D8 JUMP JUMPDEST PUSH2 0x6AE PUSH1 0x20 DUP4 ADD DUP5 PUSH2 0x5D8 JUMP JUMPDEST SWAP4 SWAP3 POP POP POP JUMP JUMPDEST PUSH0 DUP2 MLOAD SWAP1 POP PUSH2 0x6C3 DUP2 PUSH2 0x620 JUMP JUMPDEST SWAP3 SWAP2 POP POP JUMP JUMPDEST PUSH0 PUSH1 0x20 DUP3 DUP5 SUB SLT ISZERO PUSH2 0x6DE JUMPI PUSH2 0x6DD PUSH2 0x61C JUMP JUMPDEST JUMPDEST PUSH0 PUSH2 0x6EB DUP5 DUP3 DUP6 ADD PUSH2 0x6B5 JUMP JUMPDEST SWAP2 POP POP SWAP3 SWAP2 POP POP JUMP INVALID LOG2 PUSH5 0x6970667358 0x22 SLT KECCAK256 SWAP9 0xBE 0x2B DUP7 EXTCODESIZE GT SWAPN 0xC9 AND 0xDC PUSH4 0xC4CC7C53 PUSH28 0x4B6E766ED1865EE10A62C84A419B14E64736F6C634300081E003300 "
				},
				"gasEstimates": {
					"creation": {
						"codeDepositCost": "366800",
						"executionCost": "24668",
						"totalCost": "391468"
					},
					"external": {
						"addEggs(uint256)": "infinite",
						"addFlour(uint256)": "infinite",
						"addSugar(uint256)": "infinite",
						"eggs()": "2491",
						"flour()": "2425",
						"getItems()": "infinite",
						"subEggs(uint256)": "infinite",
						"subFlour(uint256)": "infinite",
						"subSugar(uint256)": "infinite",
						"sugar()": "2514"
					}
				},
				"methodIdentifiers": {
					"addEggs(uint256)": "c3179b91",
					"addFlour(uint256)": "d3e19de7",
					"addSugar(uint256)": "fb49c3c9",
					"eggs()": "e33f76cf",
					"flour()": "bff7e49f",
					"getItems()": "410d59cc",
					"subEggs(uint256)": "6071214d",
					"subFlour(uint256)": "61d87b2a",
					"subSugar(uint256)": "63dcd2d4",
					"sugar()": "a0e0e13c"
				}
			},
			"storageLayout": {
				"storage": [
					{
						"astId": 75,
						"contract": "Interface.sol:BakeryInventory",
						"label": "calAddress",
						"offset": 0,
						"slot": "0",
						"type": "t_address"
					},
					{
						"astId": 77,
						"contract": "Interface.sol:BakeryInventory",
						"label": "flour",
						"offset": 0,
						"slot": "1",
						"type": "t_uint256"
					},
					{
						"astId": 79,
						"contract": "Interface.sol:BakeryInventory",
						"label": "sugar",
						"offset": 0,
						"slot": "2",
						"type": "t_uint256"
					},
					{
						"astId": 81,
						"contract": "Interface.sol:BakeryInventory",
						"label": "eggs",
						"offset": 0,
						"slot": "3",
						"type": "t_uint256"
					}
				],
				"types": {
					"t_address": {
						"encoding": "inplace",
						"label": "address",
						"numberOfBytes": "20"
					},
					"t_uint256": {
						"encoding": "inplace",
						"label": "uint256",
						"numberOfBytes": "32"
					}
				}
			},
			"userdoc": {
				"kind": "user",
				"methods": {},
				"version": 1
			}
		}
	}
}